{
  "tx_hash": "0x8149a1310f5dd481987a6d8d98b27a183d98ebddb5756f52008499e7d7ae439a",
  "block_number": 96175283,
  "timestamp": 1780480878,
  "sender": "0x843c7b9c0c71afd59992ca152d201ee9054d7ecf",
  "to": "0x5e16ca75000fb2b9d7b1184fa24ff5d938a345ef",
  "raw_tx": "0x02f9017682138883010352830249f08511765b77f08303c8b0945e16ca75000fb2b9d7b1184fa24ff5d938a345ef80b901042f529d73000000000000000000000000000000000000000000000065cc43dac6fb880000000000000000000000000000000000000000000000000000000000006a1ffac900000000000000000000000000000000000000000000000000000000000000607c8655c77bc37e216457a30692a8cebc7afa9ac403667787dbc291027893ee470000000000000000000000002ff8bc353a4c770875cfa325a614676db82a186a0000000000000000000000000000000000000000000000000000000000000060000000000000000000000000000000000000000000000000000000000000000dac169195d7fb718ae6daba8dfa00000000000000000000000000000000000000c001a052c950180ac778d9956d70bfc5876620510b1d6d5dff5ec7d6829b29c0825c16a02efb6b863b45a56d8940bd8841e32adbb0d550a30d271f1d80d201055817c65e",
  "expected_gas_used": 26090,
  "expected_status": false,
  "expected_l1_fee": "0xce0f091aa3c9",
  "expected_l1_base_fee_scalar": "0x2943b",
  "expected_l1_blob_base_fee_scalar": "0x0",
  "expected_operator_fee_scalar": "0x5f5e100",
  "expected_operator_fee_constant": "0x0",
  "expected_da_footprint_gas_scalar": 400,
  "tx": {
    "gas_limit": 247984,
    "max_fee_per_gas": 75000150000,
    "max_priority_fee_per_gas": 150000,
    "value": "0x0",
    "input": "0x2f529d73000000000000000000000000000000000000000000000065cc43dac6fb880000000000000000000000000000000000000000000000000000000000006a1ffac900000000000000000000000000000000000000000000000000000000000000607c8655c77bc37e216457a30692a8cebc7afa9ac403667787dbc291027893ee470000000000000000000000002ff8bc353a4c770875cfa325a614676db82a186a0000000000000000000000000000000000000000000000000000000000000060000000000000000000000000000000000000000000000000000000000000000dac169195d7fb718ae6daba8dfa00000000000000000000000000000000000000",
    "nonce": 66386,
    "chain_id": 5000
  },
  "block_env": {
    "beneficiary": "0x4200000000000000000000000000000000000011",
    "gas_limit": 60000000,
    "base_fee_per_gas": 50000000000,
    "mix_hash": "0xa00c5defe7d7b3e6bfd455576228842e1241d94ef4e4bd6faba722c0e2d3d2a7"
  },
  "l1_block_info": {
    "l1_base_fee": "0x0000000000000000000000000000000000000000000000000000000009e81ec4",
    "token_ratio": "0x0000000000000000000000000000000000000000000000000000000000000c01",
    "ecotone_scalars": "0x000000000000000000000000000000000002943b000000000000000000000005",
    "l1_fee_overhead": "0x00000000000000000000000000000000000000000000000000000000000000bc",
    "l1_fee_scalar": "0x0000000000000000000000000000000000000000000000000000000000002710",
    "blob_base_fee": "0x000000000000000000000000000000000000000000000000003d7126af3fda02",
    "operator_fee_packed": "0x000000000000000000000000000000000000019005f5e1000000000000000000"
  },
  "prestate": {
    "0x4200000000000000000000000000000000000011": {
      "balance": "0x176581c1b60aeae15afe",
      "code": "0x60806040526004361061005e5760003560e01c80635c60da1b116100435780635c60da1b146100be5780638f283970146100f8578063f851a440146101185761006d565b80633659cfe6146100755780634f1ef286146100955761006d565b3661006d5761006b61012d565b005b61006b61012d565b34801561008157600080fd5b5061006b6100903660046106d9565b610224565b6100a86100a33660046106f4565b610296565b6040516100b59190610777565b60405180910390f35b3480156100ca57600080fd5b506100d3610419565b60405173ffffffffffffffffffffffffffffffffffffffff90911681526020016100b5565b34801561010457600080fd5b5061006b6101133660046106d9565b6104b0565b34801561012457600080fd5b506100d3610517565b60006101577f360894a13ba1a3210667c828492db98dca3e2076cc3735a920a3ca505d382bbc5490565b905073ffffffffffffffffffffffffffffffffffffffff8116610201576040517f08c379a000000000000000000000000000000000000000000000000000000000815260206004820152602560248201527f50726f78793a20696d706c656d656e746174696f6e206e6f7420696e6974696160448201527f6c697a656400000000000000000000000000000000000000000000000000000060648201526084015b60405180910390fd5b3660008037600080366000845af43d6000803e8061021e573d6000fd5b503d6000f35b7fb53127684a568b3173ae13b9f8a6016e243e63b6e8ee1178d6a717850b5d61035473ffffffffffffffffffffffffffffffffffffffff163373ffffffffffffffffffffffffffffffffffffffff16148061027d575033155b1561028e5761028b816105a3565b50565b61028b61012d565b60606102c07fb53127684a568b3173ae13b9f8a6016e243e63b6e8ee1178d6a717850b5d61035490565b73ffffffffffffffffffffffffffffffffffffffff163373ffffffffffffffffffffffffffffffffffffffff1614806102f7575033155b1561040a57610305846105a3565b6000808573ffffffffffffffffffffffffffffffffffffffff16858560405161032f9291906107ea565b600060405180830381855af49150503d806000811461036a576040519150601f19603f3d011682016040523d82523d6000602084013e61036f565b606091505b509150915081610401576040517f08c379a000000000000000000000000000000000000000000000000000000000815260206004820152603960248201527f50726f78793a2064656c656761746563616c6c20746f206e657720696d706c6560448201527f6d656e746174696f6e20636f6e7472616374206661696c65640000000000000060648201526084016101f8565b91506104129050565b61041261012d565b9392505050565b60006104437fb53127684a568b3173ae13b9f8a6016e243e63b6e8ee1178d6a717850b5d61035490565b73ffffffffffffffffffffffffffffffffffffffff163373ffffffffffffffffffffffffffffffffffffffff16148061047a575033155b156104a557507f360894a13ba1a3210667c828492db98dca3e2076cc3735a920a3ca505d382bbc5490565b6104ad61012d565b90565b7fb53127684a568b3173ae13b9f8a6016e243e63b6e8ee1178d6a717850b5d61035473ffffffffffffffffffffffffffffffffffffffff163373ffffffffffffffffffffffffffffffffffffffff161480610509575033155b1561028e5761028b8161060b565b60006105417fb53127684a568b3173ae13b9f8a6016e243e63b6e8ee1178d6a717850b5d61035490565b73ffffffffffffffffffffffffffffffffffffffff163373ffffffffffffffffffffffffffffffffffffffff161480610578575033155b156104a557507fb53127684a568b3173ae13b9f8a6016e243e63b6e8ee1178d6a717850b5d61035490565b7f360894a13ba1a3210667c828492db98dca3e2076cc3735a920a3ca505d382bbc81905560405173ffffffffffffffffffffffffffffffffffffffff8216907fbc7cd75a20ee27fd9adebab32041f755214dbc6bffa90cc0225b39da2e5c2d3b90600090a250565b60006106357fb53127684a568b3173ae13b9f8a6016e243e63b6e8ee1178d6a717850b5d61035490565b7fb53127684a568b3173ae13b9f8a6016e243e63b6e8ee1178d6a717850b5d61038390556040805173ffffffffffffffffffffffffffffffffffffffff8084168252851660208201529192507f7e644d79422f17c01e4894b5f4f588d331ebfa28653d42ae832dc59e38c9798f910160405180910390a15050565b803573ffffffffffffffffffffffffffffffffffffffff811681146106d457600080fd5b919050565b6000602082840312156106eb57600080fd5b610412826106b0565b60008060006040848603121561070957600080fd5b610712846106b0565b9250602084013567ffffffffffffffff8082111561072f57600080fd5b818601915086601f83011261074357600080fd5b81358181111561075257600080fd5b87602082850101111561076457600080fd5b6020830194508093505050509250925092565b600060208083528351808285015260005b818110156107a457858101830151858201604001528201610788565b818111156107b6576000604083870101525b50601f017fffffffffffffffffffffffffffffffffffffffffffffffffffffffffffffffe016929092016040019392505050565b818382376000910190815291905056fea164736f6c634300080f000a",
      "codeHash": "0x1f958654ab06a152993e7a0ae7b6dbb0d4b19265cc9337b8789fe1353bd9dc35"
    },
    "0x5e16ca75000fb2b9d7b1184fa24ff5d938a345ef": {
      "balance": "0x0",
      "code": "0x60406080815260049081361015610016575b600080fd5b600091823560e01c9081608214610e4d5781630760861b14610faa5781630e5a6c7014610b8e5781630fce341514610f6257816310b07b7114610f1a578163224242ca14610e595781632f529d7314610e4d5781632fba4aa914610d97578163313ce56714610d7b578163393e5ede14610d265781633bee58f914610cdd5781634ca2992314610ca25781634fce7a2a14610c5c57816350d25bcd14610c0a57816357de26a414610bc357816359e02dd714610b8e57816365c4ce7a14610b5457816365fae35e14610b0a578163789d819114610a3c5781639954b0dc1461098f5781639c52a7f114610945578163acf40b6f146108e9578163b259da5c1461080d578163bf353dbb146107c8578163bfe5861f1461058f578163c83c63341461055a578163ceed3ef2146104db578163d0a5882a146104b7578163d63605b814610389578163dac42ad814610338578163f29c29c4146102fb578163fe66349514610233578163feaf968c146101bc575063febb0f7e1461019757600080fd5b346101b857816003193601126101b85760209060ff61020554169051908152f35b5080fd5b90503461022f578260031936011261022f573383526002602052818320541561021e5760a09263ffffffff915490835193600185526fffffffffffffffffffffffffffffffff8316602086015284015260801c16606082015260016080820152f35b63d957b5958352336020526024601cfd5b8280fd5b5050346101b85760206003193601126101b85761024e611321565b3383528260205281832054156102ea5760ff811680156102e65761020591825460ff811683810361027e57868651f35b855160ff9182168152921660208301527fffffffffffffffffffffffffffffffffffffffffffffffffffffffffffffff009133907f95623b9931156d6d5cb43881a13f223ae416fb199e5edf776efb38766f38cbea90604090a2161790553880808080868651f35b8380fd5b634a0bfec18352336020526024601cfd5b90503461022f57602060031936011261022f573573ffffffffffffffffffffffffffffffffffffffff8116810361022f5761033590611690565b51f35b82843461038657600319908282360112610386576024359167ffffffffffffffff83116101b857606090833603011261038657508261037c9160209401903561194c565b5090519015158152f35b80fd5b9190503461022f578260031936011261022f57805191612020830183811067ffffffffffffffff82111761048b5782526101008084526020946120003687870137808685516103d781611279565b82815201528092815b8381106103fb578487528551806103f7898261133f565b0390f35b8360ff8216101561045f576001908661041c6101fe83851b1660050161192e565b80518b82015117610430575b5050016103e0565b209095829173ffffffffffffffffffffffffffffffffffffffff16610455828b61167c565b5201948638610428565b6024836032847f4e487b7100000000000000000000000000000000000000000000000000000000835252fd5b6024856041847f4e487b7100000000000000000000000000000000000000000000000000000000835252fd5b5050346101b857816003193601126101b8576020906104d46113a8565b9051908152f35b8383346101b857816003193601126101b857338252600260205280822054156105495791546060926fffffffffffffffffffffffffffffffff821692831561053e575063ffffffff6001939260801c16915b815193151584526020840152820152f35b92508291508161052d565b63d957b5958252336020526024601cfd5b5050346101b85760206003193601126101b857610575611321565b3383528260205281832054156102ea576103359033611f0c565b839150346101b857826003193601126101b85780359067ffffffffffffffff938483116102e657366023840112156102e657828201356105ce81611390565b926105db835194856112e0565b8184526020948585016024809460061b83010191368311610792578401905b82821061079a57505050813596871161079657366023880112156107965786013561062481611390565b96610631845198896112e0565b81885285880183606080940283010191368311610792578401905b828210610755575050505033855284845281852054156107475750815192855184036107435761069361067e85611390565b9461068b845196876112e0565b808652611390565b907fffffffffffffffffffffffffffffffffffffffffffffffffffffffffffffffe08186019201368337855b845181101561070057806106ea6106d86001938861167c565b516106e3838c61167c565b5190611dd6565b60ff6106f6838a61167c565b91169052016106bf565b509190858583519485948186019282875251809352850193925b82811061072957505050500390f35b835160ff168552869550938101939281019260010161071a565b8480fd5b634a0bfec18552338452601cfd5b838236031261079257878491875161076c816112c4565b61077585611331565b81528285013583820152888501358982015281520191019061064c565b8880fd5b8580fd5b85823603126107925787869182516107b181611279565b8435815282850135838201528152019101906105fa565b90503461022f57602060031936011261022f573573ffffffffffffffffffffffffffffffffffffffff811680910361022f578282916020945280845220549051908152f35b828434610386576020806003193601126101b85783359367ffffffffffffffff851161022f573660238601121561022f578401359361084b85611390565b94610858855196876112e0565b80865260248387019160051b83010191368311610743576024849101915b8383106108d1575050505033825281815282822054156108c15750805b83518110156108bc57806108b660ff6108ae6001948861167c565b511633611f0c565b01610893565b509051f35b634a0bfec182523390526024601cfd5b81906108dc84611331565b8152019101908390610876565b82843461038657816003193601126103865781519261090784611279565b356fffffffffffffffffffffffffffffffff811681036101b85783526024359063ffffffff821682036103865750826104d4916020809501526117ea565b90503461022f57602060031936011261022f573573ffffffffffffffffffffffffffffffffffffffff8116810361022f573383528260205281832054156102ea5761033590611575565b82843461038657806003193601126103865760036109ad81546115d1565b9082835b8351811015610a2c57806109c76109fd92611472565b905473ffffffffffffffffffffffffffffffffffffffff91861b1c81168752600260205287872054600114610a02575b50611620565b6109b1565b610a0b82611472565b905490861b1c16610a25610a1e85611620565b948761167c565b52876109f7565b8184528551806103f7868261133f565b839150346101b85760206003193601126101b857610a58611321565b90610100821015610ade5750610a74839160011b60050161192e565b8051602082015117610aa857505073ffffffffffffffffffffffffffffffffffffffff815b83519215158352166020820152f35b73ffffffffffffffffffffffffffffffffffffffff9250201673ffffffffffffffffffffffffffffffffffffffff600191610a99565b8260326024927f4e487b7100000000000000000000000000000000000000000000000000000000835252fd5b90503461022f57602060031936011261022f573573ffffffffffffffffffffffffffffffffffffffff8116810361022f573383528260205281832054156102ea57610335906114a9565b90503461022f57602060031936011261022f573573ffffffffffffffffffffffffffffffffffffffff8116810361022f576103359061173b565b5050346101b857816003193601126101b8576103f790610bac611d94565b915190815290151560208201529081906040820190565b90503461022f578260031936011261022f573383526002602052818320541561021e57546fffffffffffffffffffffffffffffffff1690811561022f576020925051908152f35b82843461038657806003193601126103865733815260026020528181205415610c4b57506fffffffffffffffffffffffffffffffff60209254169051908152f35b63d957b5959052336020526024601cfd5b90503461022f57602060031936011261022f573573ffffffffffffffffffffffffffffffffffffffff811680910361022f57828291602094526002845220549051908152f35b5050346101b857816003193601126101b857602090517f4554482f555344000000000000000000000000000000000000000000000000008152f35b90503461022f57602060031936011261022f573573ffffffffffffffffffffffffffffffffffffffff811680910361022f57818360019260209552600285522054149051908152f35b839150346101b857816003193601126101b8573382526002602052828220541561054957546fffffffffffffffffffffffffffffffff81169182156103865750825191825260801c63ffffffff166020820152f35b5050346101b857816003193601126101b8576020905160128152f35b8284346103865760206003193601126103865773ffffffffffffffffffffffffffffffffffffffff908335828116918282036103865761010060ff8360981c161015610e215750602094506101fe610df59160971c1660050161192e565b918251858401511715159283610e12575b50505090519015158152f35b84902016149050838080610e06565b806032877f4e487b71000000000000000000000000000000000000000000000000000000006024945252fd5b50505050610011611067565b828434610386578060031936011261038657600191610e7883546115d1565b918080855b610e95575b50506103f793508252519182918261133f565b8451811015610f155790610ee482610ead889461140c565b73ffffffffffffffffffffffffffffffffffffffff809254600392831b1c16855284602052858886205414610eeb575b5050611620565b9091610e7d565b610ef48361140c565b9054911b1c16610f0d610f0687611620565b968961167c565b528880610edd565b610e82565b9050823461038657806003193601126103865733815260026020528281205415610c4b57506fffffffffffffffffffffffffffffffff90541681519080151582526020820152f35b90503461022f57602060031936011261022f573573ffffffffffffffffffffffffffffffffffffffff811680910361022f578183600192602095528085522054149051908152f35b90503461022f57600319360160a081126102e657821361022f57815190610fd082611279565b358152602435602082015260607fffffffffffffffffffffffffffffffffffffffffffffffffffffffffffffffbc36011261022f57815192611011846112c4565b60443560ff811681036101b8578452606435602085015260843583850152338152806020528281205415611056575061104e60209360ff92611dd6565b915191168152f35b634a0bfec19052336020526024601cfd5b50346100115760031980360160608112610011576040809112610011576044359167ffffffffffffffff8311610011576060908336030112610011576110ab6117b8565b9160049283549363ffffffff8092818760801c169182911611156112295750816110d36117b8565b81421691829116116111d557508351926110ec84611279565b6fffffffffffffffffffffffffffffffff93823585811681036100115781526024358481168103610011576111319261112c9160208401528401916117ea565b61194c565b9590156111cd5760009550836111456117cb565b167fffffffffffffffffffffffff000000000000000000000000000000000000000073ffffffff000000000000000000000000000000004260801b1692161717905561118f6117cb565b916111986117b8565b908451931683521660208201527f7045db5134e0c7ca4bff0c0e096616ef4ebb36b719cd00c5f0ba4f4475ecceee823392a251f35b855160208701fd5b9061122585926111e36117b8565b93517feea80f5200000000000000000000000000000000000000000000000000000000815263ffffffff94851693810193845293166020830152829160400190565b0390fd5b9061122585926112376117b8565b93517f76f4b87800000000000000000000000000000000000000000000000000000000815263ffffffff94851693810193845293166020830152829160400190565b6040810190811067ffffffffffffffff82111761129557604052565b7f4e487b7100000000000000000000000000000000000000000000000000000000600052604160045260246000fd5b6060810190811067ffffffffffffffff82111761129557604052565b90601f7fffffffffffffffffffffffffffffffffffffffffffffffffffffffffffffffe0910116810190811067ffffffffffffffff82111761129557604052565b6004359060ff8216820361001157565b359060ff8216820361001157565b6020908160408183019282815285518094520193019160005b828110611366575050505090565b835173ffffffffffffffffffffffffffffffffffffffff1685529381019392810192600101611358565b67ffffffffffffffff81116112955760051b60200190565b60405160208101907f19457468657265756d205369676e6564204d6573736167653a0a33320000000082527ff3acba882491058ea715223a1463b7d7e8610fbbb588100fb1e69a89099384a0603c820152603c8152611406816112c4565b51902090565b6001548110156114435760016000527fb10e2d527612073b26eecdfd717e6a320cf44b4afac2b0732d9fcbe2b7fa0cf60190600090565b7f4e487b7100000000000000000000000000000000000000000000000000000000600052603260045260246000fd5b6003548110156114435760036000527fc2575a0e9e593c00f959f8c92f12db2869c3395a3b0502d05e2516446f71f85b0190600090565b73ffffffffffffffffffffffffffffffffffffffff809116906000908282528160205260016040832054146115705760016040832055600154680100000000000000008110156115435761150481600186930160015561140c565b909283549160031b90811b9283911b169119161790557fe31c10b0adbedd0c6e5d024286c6eeead7761e65a67608dcf0b67604c0da7e2f3391604051a3565b6024837f4e487b710000000000000000000000000000000000000000000000000000000081526041600452fd5b505050565b73ffffffffffffffffffffffffffffffffffffffff166000818152806020526040812054156115cd578060408120557f58466e5837b54e559819c9ba8a5d7c77c97c985d1aabf4bdc5f41069fa5d65a03391604051a3565b5050565b906115db82611390565b6115e860405191826112e0565b8281527fffffffffffffffffffffffffffffffffffffffffffffffffffffffffffffffe06116168294611390565b0190602036910137565b7fffffffffffffffffffffffffffffffffffffffffffffffffffffffffffffffff811461164d5760010190565b7f4e487b7100000000000000000000000000000000000000000000000000000000600052601160045260246000fd5b80518210156114435760209160051b010190565b6000338152806020526040812054156110565773ffffffffffffffffffffffffffffffffffffffff8092169182825260026020526001604083205414611570576001604083205560035468010000000000000000811015611543576116fc816001869301600355611472565b909283549160031b90811b9283911b169119161790557f75d30ca40c7bcd48e685894b82b864808b9cb566090efc53444a2e61742f18a33391604051a3565b600090338252816020526040822054156117a75773ffffffffffffffffffffffffffffffffffffffff169081815260026020526040812054156115cd578060408120557fdadd1471db1ea2f303654fb1bdcc010e5a664214ab41934c0f752aabca88a4913391604051a3565b634a0bfec18252336020526024601cfd5b60243563ffffffff811681036100115790565b6004356fffffffffffffffffffffffffffffffff811681036100115790565b602081519101517fffffffff00000000000000000000000000000000000000000000000000000000604051917fffffffffffffffffffffffffffffffff0000000000000000000000000000000060208401947f4554482f55534400000000000000000000000000000000000000000000000000865260801b16604084015260e01b1660508201526034815261187e816112c4565b51902060405160208101917f19457468657265756d205369676e6564204d6573736167653a0a3332000000008352603c820152603c8152611406816112c4565b604051906118cb826112c4565b60006040838281528260208201520152565b9035907fffffffffffffffffffffffffffffffffffffffffffffffffffffffffffffffe181360301821215610011570180359067ffffffffffffffff82116100115760200191813603831361001157565b9060405161193b81611279565b602060018294805484520154910152565b906000602060405161195d81611279565b828152015261196a6118be565b5061197860408201826118dd565b93905060ff6102055416808503611d45575061199760408301836118dd565b156114435735916101008360f81c1015611443576119be6101fe8460f71c1660050161192e565b92835160208501511715611d335760019060f81c1b906119dc6118be565b5060208451940151604051946119f1866112c4565b855260208501526001604085015260015b60ff81169287841015611b9f57611a1c60408401846118dd565b8591951015611443576101008186013560f81c101561144357611a4b6101fe8287013560f71c1660050161192e565b94855160208701511715611b825760018282013560f81c1b8316611b315791600160ff94928194013560f81c1b179487805160208201516020828460408101517ffffffffffffffffffffffffffffffffffffffffffffffffffffffffefffffc2f809881808099818099818099818a81808280099781898d510990820390089d8e936040848087800981808d8180856004099b8c9a089382039082030891800908910152099b09950151816002988d82039409900908840996828080888709810384820308818a800908809a520990098203948203900890090860208801520116611a02565b96509750505050509150604051927f1280090c000000000000000000000000000000000000000000000000000000006020850152602491013560f81c818401528252611b7c826112c4565b60009190565b959850955050505050611b9a9250013560f81c611f94565b600091565b505093929194505060006020604051611bb781611279565b828152015260405190611bc982611279565b60008252602082019060008252604081015190600091600190807ffffffffffffffffffffffffffffffffffffffffffffffffffffffffefffffc2f915b611cf657505050907ffffffffffffffffffffffffffffffffffffffffffffffffffffffffefffffc2f80926020828480099183838251098852015192099009905260208301359173ffffffffffffffffffffffffffffffffffffffff8316830361001157611c75933591611fd6565b15611ca857604051906020820182811067ffffffffffffffff821117611295578060009160405281845236903760019190565b604051907fbd2a556b000000000000000000000000000000000000000000000000000000006020830152600482526040820182811067ffffffffffffffff8211176112955760405260009190565b7ffffffffffffffffffffffffffffffffffffffffffffffffffffffffefffffc2f8183949693049281878509820390089290918202900380611c06565b9250509250611b9a915060f81c611f94565b6040517fce818a2400000000000000000000000000000000000000000000000000000000602082015260ff9586166024820152941660448086019190915284529150611b7c90506064836112e0565b33600052600260205260406000205415611dc4576fffffffffffffffffffffffffffffffff600454169081151590565b63d957b595600052336020526024601cfd5b6040918282209273ffffffffffffffffffffffffffffffffffffffff91828516926020611e34611e046113a8565b84518386015195870151875192835260ff9091166020830152604082019590955260608101949094526080840190565b836000948592838052039060015afa15611f00578082511684036101b85760ff8660981c1695610100871015611ed35760971c6101fe16906005820190611e7a8261192e565b8051602082015117611ec15750506020866006927f2c44ddc69b8b0966ef9e8edb873b850fb2eff06ca6e2bc37c9adf3551ec39e549697985190550151910155339251a390565b92509392955050201603610386575090565b6024837f4e487b710000000000000000000000000000000000000000000000000000000081526032600452fd5b509051903d90823e3d90fd5b906101008110156114435760011b8060050190611f288261192e565b908151602083015117611f3c575b50505050565b60066000918260409555015573ffffffffffffffffffffffffffffffffffffffff918291201691167f9ec05f17908406877637da36ab29c002620cb544d0049837bfa095e62726455c6000604051a338808080611f36565b60ff604051917fc523c75e00000000000000000000000000000000000000000000000000000000602084015216602482015260248152611fd3816112c4565b90565b9190918115801561219a575b61219157602081019283518251947ffffffffffffffffffffffffffffffffffffffffffffffffffffffffefffffc2f80600781808a80098a09089083800903612185577ffffffffffffffffffffffffffffffffebaaedce6af48a03bbfd25e8cd03641419283861015612178577f0100000000000000000000000000000000000000000000000000000000000000604051936020850198895260f81b16604084015260418301527fffffffffffffffffffffffffffffffffffffffff0000000000000000000000008760601b16606183015260558252608082019382851067ffffffffffffffff86111761129557601b6000968580600160ff8261213d987fffffffffffffffffffffffffffffffffffffffffffffffffffffffffffffff809b60209f8e6040528c519020069851978894859251160198098303961693099003875260ff166020870152604086015260608501526080840190565b84805203019060015afa1561216c5773ffffffffffffffffffffffffffffffffffffffff806000511691161490565b6040513d6000823e3d90fd5b5050505050505050600090565b50505050505050600090565b50505050600090565b5073ffffffffffffffffffffffffffffffffffffffff841615611fe256fea26469706673582212209bcf8fbe8b1dd7fda04f007515f546b349107482ace50420e268ff85f487e18464736f6c63430008100033",
      "codeHash": "0x81a494adfa2132a989e00b9b0f181d1ce2be1023eb6742e23eb52b9321611b65",
      "nonce": 1,
      "storage": {
        "0x0000000000000000000000000000000000000000000000000000000000000004": "0x0000000000000000000000006a1ffb6c00000000000000659c62fe0e606f0000"
      }
    },
    "0x843c7b9c0c71afd59992ca152d201ee9054d7ecf": {
      "balance": "0x57dafd9c8bd8d7d15",
      "nonce": 66386
    }
  }
}
